:100000000C945E000C9486000C9486000C94860080
:100010000C9486000C9486000C9486000C94860048
:100020000C9486000C9486000C9486000C94860038
:100030000C9486000C9486000C9486000C94860028
:100040000C947C030C9486000C94EC030C94C60373
:100050000C9486000C9486000C9486000C94860008
:100060000C9486000C9486000000000024002700F9
:100070002A0000000000250028002B0004040404CE
:100080000404040402020202020203030303030342
:10009000010204081020408001020408102001021F
:1000A00004081020000000080002010000030407FB
:1000B00000000000000000001E04100611241FBEF6
:1000C000CFEFD8E0DEBFCDBF22E0A2E6B1E001C0B5
:1000D0001D92A734B207E1F711E0A0E0B1E0EAE138
:1000E000F2E102C005900D92A236B107D9F710E0F7
:1000F000CDE5D0E004C02197FE010E94FE06CC357C
:10010000D107C9F70E946E040C9400090C940000FA
:10011000E1EBF0E09491EDE9F0E02491E9E8F0E022
:10012000E491EE2309F43CC0992339F1933091F026
:1001300038F49130A9F0923001F594B59F7D12C04A
:10014000973091F09830A1F09430B9F490918000FC
:100150009F7D03C0909180009F77909380000DC099
:1001600094B59F7794BD09C09091B0009F7703C06C
:100170009091B0009F7D9093B000F0E0EE0FFF1FD4
:10018000EE58FF4FA591B4919FB7F894811104C028
:100190008C912095282302C0EC912E2B2C939FBF8D
:1001A00008953FB7F8948091680190916901A091FA
:1001B0006A01B0916B0126B5A89B05C02F3F19F0CD
:1001C0000196A11DB11D3FBFBA2FA92F982F8827D7
:1001D000820F911DA11DB11DBC01CD0142E0660F32
:1001E000771F881F991F4A95D1F708958F929F9284
:1001F000AF92BF92CF92DF92EF92FF920E94D10016
:100200004B015C0184E1C82ED12CE12CF12C0E9421
:10021000D100DC01CB0188199909AA09BB09883EE4
:100220009340A105B10598F321E0C21AD108E10875
:10023000F10888EE880E83E0981EA11CB11CC11441
:10024000D104E104F10419F7FF90EF90DF90CF9013
:10025000BF90AF909F908F9008950895CF92DF92B6
:10026000EF92FF920F931F93CF93DF936C017A016C
:100270008B01C0E0D0E0CE15DF0581F0D8016D9193
:100280008D01D601ED91FC910190F081E02DC60128
:100290000995892B11F02196EECF7E01C701DF91E0
:1002A000CF911F910F91FF90EF90DF90CF90089525
:1002B00080E090E00895FC01538D448D252F30E0BF
:1002C000842F90E0821B930B541710F0CF96089563
:1002D00001970895FC01918D828D981761F0828DB0
:1002E000DF01A80FB11D5D968C91928D9F5F9F736A
:1002F000928F90E008958FEF9FEF08952FB7F894B5
:1003000080916C0190916D01A0916E01B0916F018F
:100310002FBF8093780190937901A0937A01B093D5
:100320007B0180E791E00E946A0197FF26C02FB70A
:10033000F89480916C0190916D01A0916E01B09143
:100340006F012FBF409178015091790160917A013E
:1003500070917B01841B950BA60BB70B4091740128
:10036000509175016091760170917701841795071E
:10037000A607B707B0F28FEF9FEF0895FC01918DAC
:10038000828D981731F0828DE80FF11D858D90E0F8
:1003900008958FEF9FEF0895FC01918D228D892F95
:1003A00090E0805C9F4F821B91098F73992708957D
:1003B00080E791E00E94CC0121E0892B09F420E044
:1003C000822F0895FC01848DDF01A80FB11DA35A6F
:1003D000BF4F2C91848D90E001968F739927848F65
:1003E000A689B7892C93A089B1898C918370806488
:1003F0008C93938D848D981306C00288F389E02D29
:1004000080818F7D80830895EF92FF920F931F93D9
:10041000CF93DF93EC0181E0888F9B8D8C8D9813B7
:1004200005C0E889F989808185FD26C0F62E0B8DEF
:1004300010E00F5F1F4F0F731127E02E8C8DE81215
:100440000CC00FB607FCFACFE889F989808185FFD7
:10045000F5CFCE010E94E201F1CF8B8DFE01E80FB6
:10046000F11DE35AFF4FF0829FB7F8940B8FEA8992
:10047000FB89808180620AC09FB7F894EE89FF896A
:100480006083E889F98980818370806480839FBF5D
:1004900081E090E0DF91CF911F910F91FF90EF905D
:1004A0000895CF93DF93EC01888D8823C9F0EA8902
:1004B000FB89808185FD05C0A889B9898C9186FD5D
:1004C0000FC00FB607FCF5CF808185FFF2CFA8895A
:1004D000B9898C9185FFEDCFCE010E94E201E7CF73
:1004E000DF91CF91089580E090E0892B29F00E9460
:1004F000D80181110C9400000895009769F0FC0167
:1005000001900020E9F73197AF01481B590BBC015E
:1005100080E791E00C942E0180E090E008950E9425
:10052000EB080F931F93CF93DF938C01EB01FC013A
:1005300080819181009739F0688179816115710519
:10054000A1F40E949C0788819981F801918380839E
:100550008A819B81938382838C819D81958384830F
:10056000198218821B821A820FC0F80142815381BE
:100570002C813D814217530720F30E94F9088C819A
:100580009D81F801958384831D821C82DF91CF9128
:100590001F910F910895FC01808191810C949C071B
:1005A0000F931F93CF93DF93EC018881998100977C
:1005B00029F02A813B812617370788F48B016F5F6A
:1005C0007F4F0E942508009761F0998388831B83E1
:1005D0000A832C813D81232B11F4FC01108281E0E0
:1005E00001C080E0DF91CF911F910F910895EF92AC
:1005F000FF920F931F93CF93DF93EC017B018A014E
:10060000BA010E94D0022881398181110DC02115C3
:10061000310519F0C9010E949C07198218821D82B8
:100620001C821B821A8206C01D830C83B701C9017C
:100630000E94F908CE01DF91CF911F910F91FF9099
:10064000EF900895FC0111821082138212821582AC
:10065000148240E050E06DE171E00C94F702CF931A
:10066000DF93EC016115710559F0FB010190002049
:10067000E9F73197AF01461B570B0E94F7020CC0F8
:1006800088819981009711F00E949C071982188235
:100690001D821C821B821A82CE01DF91CF910895A8
:1006A0000F931F93CF93DF93CDB7DEB762970FB64B
:1006B000F894DEBF0FBECDBF8C01CB01F8011182D3
:1006C000108213821282158214824AE0BE016F5F8B
:1006D0007F4F0E945B06BE016F5F7F4FC8010E9483
:1006E0002F0362960FB6F894DEBF0FBECDBFDF9129
:1006F000CF911F910F9108951F920F920FB60F92F5
:1007000011242F933F938F939F93AF93BF93809127
:100710006C0190916D01A0916E01B0916F013091CB
:10072000670123E0230F2D3720F40196A11DB11D91
:1007300005C026E8230F0296A11DB11D2093670175
:1007400080936C0190936D01A0936E01B0936F0143
:100750008091680190916901A0916A01B0916B014B
:100760000196A11DB11D8093680190936901A0932A
:100770006A01B0936B01BF91AF919F918F913F91AF
:100780002F910F900FBE0F901F9018951F920F92F0
:100790000FB60F9211242F933F934F935F936F9354
:1007A0007F938F939F93AF93BF93EF93FF9380E7D4
:1007B00091E00E94E201FF91EF91BF91AF919F9173
:1007C0008F917F916F915F914F913F912F910F90FA
:1007D0000FBE0F901F9018951F920F920FB60F9299
:1007E00011242F938F939F93EF93FF93E0918001B8
:1007F000F09181018081E0918601F091870182FD75
:1008000012C09081809189018F5F8F7320918A013E
:10081000821751F0E0918901F0E0E059FE4F958F89
:100820008093890101C08081FF91EF919F918F9109
:100830002F910F900FBE0F901F901895E0E7F1E0F9
:100840001382128288EE93E0A0E0B0E08483958367
:10085000A683B7838AE091E09183808385EC90E062
:100860009587848784EC90E09787868780EC90E07A
:10087000918B808B81EC90E0938B828B82EC90E06B
:10088000958B848B86EC90E0978B868B118E128EE5
:10089000138E148E8DE392E00E94220387E392E090
:1008A0000E94220381E392E00E9422038BE292E005
:1008B0000E94220385E292E00E9422038FE192E0EF
:1008C0000E94220389E192E00E94220383E192E0E8
:1008D0000E9422038DE092E00C942203CF93DF93D9
:1008E000CDB7DEB7A3970FB6F894DEBF0FBECDBF6E
:1008F000789484B5826084BD84B5816084BD85B5FB
:10090000826085BD85B5816085BD80916E00816006
:1009100080936E00109281008091810082608093AC
:1009200081008091810081608093810080918000AE
:100930008160809380008091B10084608093B100D9
:100940008091B00081608093B00080917A008460D3
:1009500080937A0080917A00826080937A008091FF
:100960007A00816080937A0080917A008068809319
:100970007A001092C1001092630110926201E0911E
:100980008001F091810182E08083E0917C01F0910F
:100990007D011082E0917E01F0917F018FEC8083D8
:1009A00010928801E0918401F091850186E08083B6
:1009B000E0918201F0918301808180618083E091E8
:1009C0008201F0918301808188608083E0918201BF
:1009D000F0918301808180688083E0918201F091B1
:1009E000830180818F7D8083EDE9F0E02491E9E847
:1009F000F0E08491882399F090E0880F991FFC0122
:100A0000E859FF4FA591B491FC01EE58FF4F859135
:100A100094918FB7F894EC91E22BEC938FBF8AE01E
:100A2000882E912CA12CB12C109266011092650198
:100A3000CE0101960E9422030E947E0197FD1CC0F8
:100A40008AA31BA2ED80FE808FEFE81AF80AB70197
:100A5000CE0101960E94D002882371F329813A8148
:100A60008D819E81BE016E5D7F4F820F931F0E941C
:100A7000F908FE82ED82E0CFBE016F5F7F4F8BE20F
:100A800092E00E949102CE0101960E94CB028091D9
:100A90006501909166010297CCF061E070E0CE01B3
:100AA00001960E945003BE016F5F7F4F8FE192E07D
:100AB0000E949102CE0101960E94CB0288E191E052
:100AC0000E947D028BE191E00E947D026EE171E067
:100AD0008DE092E00E942F0361E371E085E292E0F5
:100AE0000E942F0380912B0290912C02009729F0F5
:100AF0000E9434066B017C0103C0C12CD12C76010D
:100B00006DE471E08FE192E00E942F039FEFC91A1C
:100B1000D90AD0926301C09262016FE471E083E16F
:100B200092E00E942F030D2C000CEE08FF08F7FE48
:100B300020C06DE280E791E00E9404022227332763
:100B4000A9012C193D094E095F0919A2FE01B196B0
:100B50007F01CA01B901A50194010E94DC06605D14
:100B6000F70162937F01211531054105510589F790
:100B700015C0A701960119A2CE0181967C01CA0178
:100B8000B901A50194010E94DC06605DF701629342
:100B90007F01211531054105510589F7C7010E94E3
:100BA0007D028BE191E00E947D0260916401F4E698
:100BB0006F02B0011124CE0101960E945003BE01C4
:100BC0006F5F7F4F8FE192E00E949102CE0101960C
:100BD0000E94CB026DE571E083E192E00E942F0359
:100BE000FC0180819181892B69F481E00E94880059
:100BF0000E94F60080E00E9488000E94F6000E9499
:100C0000730212CF2FB7F89480916C0190916D010F
:100C1000A0916E01B0916F012FBF80936401E5CF69
:100C20008DE092E00E94CB0283E192E00E94CB0231
:100C300089E192E00E94CB028FE192E00E94CB0218
:100C400085E292E00E94CB028BE292E00E94CB020E
:100C500081E392E00E94CB0287E392E00E94CB0204
:100C60008DE392E00C94CB021F93FC019927882717
:100C7000BC01E89411911032E9F3193010F01E30E4
:100C8000C8F31B3251F01D3249F4689406C00E942B
:100C90006606610F711D811D911D119110531A304F
:100CA000B0F33EF490958095709561957F4F8F4F8E
:100CB0009F4F1F910895BB274A3031F4992322F4A6
:100CC000BDE2909581959F4F0C947C06592F482F3B
:100CD000372F262F660F771F881F991F660F771FE4
:100CE000881F991F620F731F841F951F660F771F40
:100CF000881F991F0895BB27FB015527AA27880F36
:100D0000991FAA1FA41710F0A41B83955051B9F77F
:100D1000A05DAA3308F0A95DA193009779F7B111FE
:100D2000B1931192CB010C949506DC01FC01672F65
:100D300071917723E1F7329704C07C916D937083B2
:100D40006291AE17BF07C8F308952F923F924F925A
:100D50005F926F927F928F929F92AF92BF92CF924B
:100D6000DF92EF92FF920F931F93CF93DF93CDB754
:100D7000DEB7CA1BDB0B0FB6F894DEBF0FBECDBFCC
:100D800009942A88398848885F846E847D848C849D
:100D90009B84AA84B984C884DF80EE80FD800C81A6
:100DA0001B81AA81B981CE0FD11D0FB6F894DEBF89
:100DB0000FBECDBFED010895A1E21A2EAA1BBB1BE9
:100DC000FD010DC0AA1FBB1FEE1FFF1FA217B30717
:100DD000E407F50720F0A21BB30BE40BF50B661F2D
:100DE000771F881F991F1A9469F7609570958095F1
:100DF00090959B01AC01BD01CF010895EE0FFF1F3F
:100E00000590F491E02D09940F931F93CF93DF93F6
:100E10008230910510F482E090E0E0914502F0917B
:100E2000460220E030E0A0E0B0E0309719F14081C8
:100E300051810281138148175907C8F0841795071B
:100E400069F4109731F012960C93129713961C9335
:100E500027C0009345021093460222C02115310598
:100E600019F04217530718F49A01BD01EF01DF0191
:100E7000F801DBCF21153105F9F0281B390B24309F
:100E8000310580F48A819B816115710521F0FB0198
:100E90009383828304C09093460280934502FE01AF
:100EA000329644C0FE01E20FF31F819391932250CA
:100EB0003109398328833AC020914302309144029A
:100EC000232B41F42091020130910301309344021D
:100ED0002093430220910001309101012115310539
:100EE00041F42DB73EB74091040150910501241BF8
:100EF000350BE0914302F0914402E217F307A0F4AE
:100F00002E1B3F0B2817390778F0AC014E5F5F4F5F
:100F10002417350748F04E0F5F1F5093440240934B
:100F200043028193919302C0E0E0F0E0CF01DF91B2
:100F3000CF911F910F910895CF93DF93009709F4FC
:100F400081C0FC01329713821282A0914502B091B8
:100F50004602109781F420813181820F931F2091E6
:100F60004302309144022817390751F5F0934402A7
:100F7000E093430267C0ED0120E030E0CE17DF07C9
:100F800040F44A815B819E0141155105F1F0EA016F
:100F9000F5CFD383C28340815181840F951FC81739
:100FA000D90759F488819981840F951F02969183FE
:100FB00080838A819B81938382832115310529F463
:100FC000F0934602E09345023DC0E901FB83EA83CA
:100FD00049915991C40FD51FEC17FD0761F4808129
:100FE0009181840F951F0296E901998388838281FC
:100FF00093819B838A83E0E0F0E012968D919C912F
:101000001397009719F0FD01DC01F7CF8D919C91AA
:1010100011979D012E5F3F4F820F931F2091430236
:10102000309144022817390769F4309729F4109257
:1010300046021092450202C013821282B09344020B
:10104000A0934302DF91CF910895A0E0B0E0EBE2DE
:10105000F8E00C94A906EC01009721F4CB010E9462
:101060000407B4C0FC01E60FF71F9C0122503109B0
:10107000E217F30708F4A8C0D9010D911C9111974C
:1010800006171707B0F00530110508F49BC0C8011A
:1010900004978617970708F495C002501109061B9C
:1010A000170B019311936D937C93CF010E949C07C2
:1010B00089C05B01A01AB10A4C01800E911EA0915B
:1010C0004502B0914602612C712CE12CF12C109755
:1010D00009F446C08D919C911197A815B905B1F5F9
:1010E0006C0142E0C40ED11CCA14DB0478F14C013F
:1010F0008A189B08640142E0C40ED11C1296BC9071
:1011000012971396AC91B5E0CB16D10440F0B282A1
:10111000A38391828082D9016D937C9309C00E5F75
:101120001F4F800F911FF90191838083EB2DFA2FC0
:10113000E114F10431F0D7011396FC93EE9312976A
:1011400041C0F0934602E09345023CC06816790620
:1011500008F43C017D0112960D90BC91A02DB7CFF3
:10116000809143029091440288169906E1F4661634
:101170007706C8F48091000190910101009741F435
:101180008DB79EB74091040150910501841B950BCA
:10119000E817F907C8F4F0934402E0934302F90119
:1011A000718360830FC0CB010E9404077C0100970C
:1011B00059F0A801BE010E94F008CE010E949C07D0
:1011C000C70104C0CE0102C080E090E0CDB7DEB719
:1011D000EEE00C94C50681E090E0F8940C940009D0
:1011E000FB01DC0102C001900D9241505040D8F744
:1011F0000895FB01DC0101900D920020E1F70895B4
:1012000010E0CDE5D0E004C0FE010E94FE0621966C
:0A121000CE35D107C9F7F894FFCFDF
:10121A000000470280000000000004022E015B016A
:10122A005102CC016A01BE014132000D0A00736805
:10123A0061312F4A4F422F2026686173685B305D07
:10124A000075696E7431365F742069203D20303B29
:10125A002069203C2032303B20692B2B00300025AE
:10126A003032782F686173685B695D2900474F4F98
:02127A0044002E
:107800000C94343C0C94513C0C94513C0C94513CE1
:107810000C94513C0C94513C0C94513C0C94513CB4
:107820000C94513C0C94513C0C94513C0C94513CA4
:107830000C94513C0C94513C0C94513C0C94513C94
:107840000C94513C0C94513C0C94513C0C94513C84
:107850000C94513C0C94513C0C94513C0C94513C74
:107860000C94513C0C94513C11241FBECFEFD8E036
:10787000DEBFCDBF11E0A0E0B1E0ECE9FFE702C060
:1078800005900D92A230B107D9F712E0A2E0B1E065
:1078900001C01D92AD30B107E1F70E942D3D0C945F
:1078A000CC3F0C94003C982F959595959595959582
:1078B000905D8F708A307CF0282F295A8091C0000B
:1078C00085FFFCCF9093C6008091C00085FFFCCF60
:1078D0002093C6000895282F205DF0CF982F809127
:1078E000C00085FFFCCF9093C6000895EF92FF92F1
:1078F0000F931F93EE24FF2487018091C00087FD22
:1079000017C00894E11CF11C011D111D81E4E8164B
:1079100082E4F8068FE0080780E0180770F3E09132
:107920000401F091050109958091C00087FFE9CF1E
:107930008091C6001F910F91FF90EF9008950E94D3
:10794000763C982F8091C00085FFFCCF9093C600B5
:1079500091362CF490330CF09053892F089597555D
:10796000892F08951F930E949F3C182F0E949F3CCF
:107970001295107F810F1F9108951F93182F882350
:1079800021F00E94763C1150E1F71F9108951F935A
:10799000182F0E94763C803249F0809103018F5F5E
:1079A000809303018530C1F01F9108958091C0003C
:1079B00085FFFCCF84E18093C6008091C00085FFE5
:1079C000FCCF1093C6008091C00085FFFCCF80E102
:1079D0008093C6001F910895E0910401F091050184
:1079E00009951F9108950E94763C803241F0809164
:1079F00003018F5F80930301853081F008958091AA
:107A0000C00085FFFCCF84E18093C6008091C00058
:107A100085FFFCCF80E18093C6000895E0910401CA
:107A2000F09105010995089540E951E08823A1F0FE
:107A30002D9A28EE33E0FA013197F1F721503040CA
:107A4000D1F72D9828EE33E0FA013197F1F7215064
:107A50003040D1F7815061F708953F924F925F9285
:107A60006F927F928F929F92AF92BF92CF92DF924E
:107A7000EF92FF920F931F93CF93DF93000080E16B
:107A80008093C4001092C50088E18093C10086E015
:107A90008093C2005098589A259A81E00E94143D24
:107AA00024E1F22E9EE1E92E85E9D82E0FE0C02ECA
:107AB00010E1B12EAA24A394B1E49B2EA6E58A2E50
:107AC000F2E57F2EE0E26E2E79E4572E63E5462E36
:107AD00050E5352E0E94763C8033B1F18133B9F107
:107AE000803409F46FC0813409F476C0823409F41B
:107AF00085C0853409F488C0803531F1823521F1A3
:107B0000813511F1853509F485C0863509F48DC0BC
:107B1000843609F496C0843709F403C1853709F423
:107B200072C1863709F466C0809103018F5F80932C
:107B30000301853079F6E0910401F0910501099582
:107B40000E94763C803351F60E94F33CC3CF0E94E2
:107B5000763C803249F78091C00085FFFCCFF092DF
:107B6000C6008091C00085FFFCCF9092C600809136
:107B7000C00085FFFCCF8092C6008091C00085FFC9
:107B8000FCCF7092C6008091C00085FFFCCF609250
:107B9000C6008091C00085FFFCCF5092C600809146
:107BA000C00085FFFCCF4092C6008091C00085FFD9
:107BB000FCCF3092C6008091C00085FFFCCFB09210
:107BC000C60088CF0E94763C863808F4BDCF0E945C
:107BD000763C0E94F33C7ECF0E94763C803809F4CC
:107BE0009CC0813809F40BC1823809F43CC1883942
:107BF00009F48FC080E00E94C73C6CCF84E10E94F2
:107C0000BD3C0E94F33C66CF85E00E94BD3C0E94D3
:107C1000F33C60CF0E94763C809306010E94763C44
:107C2000809307010E94F33C55CF0E94763C80333D
:107C300009F41DC183E00E94BD3C80E00E94C73C66
:107C400049CF0E94763C809309020E94763C809343
:107C5000080280910C028E7F80930C020E94763C79
:107C6000853409F415C18091080290910902892B8D
:107C700089F000E010E00E94763CF801E85FFE4FDA
:107C800080830F5F1F4F80910802909109020817AF
:107C9000190788F30E94763C803209F045CF809125
:107CA0000C0280FF01C16091060170910701660F0F
:107CB000771F7093070160930601A0910802B091AD
:107CC00009021097C9F0E8E0F1E09B01AD014E0F09
:107CD0005F1FF999FECF32BD21BD819180BDFA9A17
:107CE000F99A2F5F3F4FE417F50799F76A0F7B1F4B
:107CF00070930701609306018091C00085FFFCCF5F
:107D0000F092C6008091C00085FFFCCFB092C60003
:107D1000E1CE83E00E94C73CDDCE82E00E94C73CFA
:107D2000D9CE0E94763C809309020E94763C8093D3
:107D300008028091060190910701880F991F909386
:107D40000701809306010E94763C853409F4A6C0A1
:107D500080910C028E7F80930C020E94763C8032D0
:107D600009F0B8CE8091C00085FFFCCFF092C6002C
:107D7000609108027091090261157105B9F140E046
:107D800050E080910C02A82FA170B82FB27011C0E2
:107D9000BB2309F45CC0E0910601F0910701319624
:107DA000F0930701E09306014F5F5F4F46175707B7
:107DB000E8F4AA2369F3F999FECF209106013091E6
:107DC000070132BD21BDF89A90B58091C00085FFB2
:107DD000FCCF9093C6002F5F3F4F30930701209355
:107DE00006014F5F5F4F4617570718F38091C00099
:107DF00085FDE5CE8091C00085FFF8CFE0CE81E023
:107E00000E94C73C67CE0E94763C803209F08CCE3F
:107E10008091C00085FFFCCFF092C6008091C00029
:107E200085FFFCCFE092C6008091C00085FFFCCFAB
:107E3000D092C6008091C00085FFFCCFC092C600E2
:107E40008091C00085FFFCCFB092C60043CEE09188
:107E50000601F091070194918091C00085FFFCCF4D
:107E60009093C6009CCF80E10E94C73C33CE0E9415
:107E7000763C0E94763C182F0E94763C112309F430
:107E800083C0113009F484C08FE00E94C73C22CE29
:107E900080910C02816080930C02E5CE80910C02EF
:107EA000816080930C0259CF809107018823880F4D
:107EB000880B8A2180930B02809106019091070123
:107EC000880F991F90930701809306018091080203
:107ED00080FF09C080910802909109020196909359
:107EE000090280930802F894F999FECF1127E091D6
:107EF0000601F0910701C8E0D1E08091080290915D
:107F00000902103091F40091570001700130D9F34B
:107F100003E000935700E89500915700017001308D
:107F2000D9F301E100935700E89509901990009169
:107F3000570001700130D9F301E000935700E89534
:107F40001395103498F011270091570001700130FB
:107F5000D9F305E000935700E895009157000170B0
:107F60000130D9F301E100935700E895329602976A
:107F700009F0C7CF103011F00296E5CF112480919F
:107F8000C00085FFB9CEBCCE8EE10E94C73CA2CD19
:0C7F900085E90E94C73C9ECDF894FFCF0D
:027F9C00800063
:040000030000780081
:00000001FF
