:100000000C9466000C948E000C948E000C948E0060
:100010000C948E000C948E000C948E000C948E0028
:100020000C948E000C948E000C948E000C948E0018
:100030000C948E000C948E000C948E000C948E0008
:100040000C940B060C948E000C94D9050C94B305FB
:100050000C948E000C948E000C948E000C948E00E8
:100060000C948E000C948E009979825AA1EBD96E73
:10007000DCBC1B8FD6C162CA00000000250028002E
:100080002B0000000000240027002A0004040404C0
:100090000404040402020202020203030303030332
:1000A000010204081020408001020408102001020F
:1000B000040810200123456789ABCDEFFEDCBA9818
:1000C00076543210F0E1D2C35506630A11241FBEE4
:1000D000CFEFD8E0DEBFCDBF22E0A6E4B1E001C0A3
:1000E0001D92AC3EB207E1F711E0A0E0B1E0E6E01E
:1000F000FBE102C005900D92A634B107D9F710E0DC
:10010000C5E6D0E004C02197FE010E94750BC436FD
:10011000D107C9F70E9496060C94760D0C94000046
:100120000895AF92BF92CF92DF92EF92FF920F931A
:100130001F93CF93DF936C017B018B01040F151F7D
:10014000EB015E01AE18BF08C017D10759F06991E5
:10015000D601ED91FC910190F081E02DC601099549
:10016000892B79F7C501DF91CF911F910F91FF90F6
:10017000EF90DF90CF90BF90AF900895FC01538D2A
:10018000448D252F30E0842F90E0821B930B541771
:1001900010F0CF96089501970895FC01918D828DFE
:1001A000981761F0A28DAE0FBF2FB11D5D968C9197
:1001B000928D9F5F9F73928F90E008958FEF9FEFD6
:1001C00008952FB7F89480918B0190918C01A091A4
:1001D0008D01B0918E012FBF80939701909398016C
:1001E000A0939901B0939A018FE891E00E94CD000D
:1001F00097FF26C02FB7F89480918B0190918C01C6
:10020000A0918D01B0918E012FBF40919701509127
:1002100098016091990170919A01841B950BA60B2E
:10022000B70B4091930150919401609195017091A9
:10023000960184179507A607B707B0F28FEF9FEFD7
:100240000895FC01918D828D981731F0828DE80F11
:10025000F11D858D90E008958FEF9FEF08952FB7E2
:10026000F89480918B0190918C01A0918D01B091B7
:100270008E012FBF8093970190939801A0939901CD
:10028000B0939A018FE891E00E94210197FF26C068
:100290002FB7F89480918B0190918C01A0918D01E2
:1002A000B0918E012FBF40919701509198016091BC
:1002B000990170919A01841B950BA60BB70B409185
:1002C000930150919401609195017091960184176A
:1002D0009507A607B707B0F28FEF9FEF0895FC01CF
:1002E000918D228D892F90E0805C9F4F821B910918
:1002F0008F73992708958FE891E00E946F0121E0A4
:10030000892B09F420E0822F089580E090E0892B6A
:1003100029F00E947B0181110C9400000895FC01DA
:10032000A48DA80FB92FB11DA35ABF4F2C91848D56
:1003300090E001968F739927848FA689B7892C93B3
:10034000A089B1898C91837080648C93938D848D06
:10035000981306C00288F389E02D80818F7D808309
:100360000895EF92FF920F931F93CF93DF93EC01C9
:1003700081E0888F9B8D8C8D98131AC0E889F9894C
:10038000808185FF15C09FB7F894EE89FF8960834F
:10039000E889F98980818370806480839FBF81E0D0
:1003A00090E0DF91CF911F910F91FF90EF90089512
:1003B000F62E0B8D10E00F5F1F4F0F731127E02EED
:1003C0008C8D8E110CC00FB607FCFACFE889F98925
:1003D000808185FFF5CFCE010E948F01F1CFEB8D9B
:1003E000EC0FFD2FF11DE35AFF4FF0829FB7F894F9
:1003F0000B8FEA89FB8980818062CFCFCF93DF9317
:10040000EC01888D8823B9F0AA89BB89E889F9892C
:100410008C9185FD03C0808186FD0DC00FB607FC61
:10042000F7CF8C9185FFF2CF808185FFEDCFCE0194
:100430000E948F01E9CFDF91CF9108953FB7F894E3
:100440008091470190914801A0914901B0914A01E2
:1004500026B5A89B05C02F3F19F00196A11DB11D1F
:100460003FBFBA2FA92F982F8827BC01CD01620F5B
:10047000711D811D911D42E0660F771F881F991F16
:100480004A95D1F7089590E080E008952F923F9229
:100490004F925F926F927F928F929F92AF92BF9294
:1004A000CF92DF92EF92FF920F931F93CF93DF9340
:1004B000CDB7DEB7A8970FB6F894DEBF0FBECDBF9D
:1004C0001C018C010C5A1F4F1A830983D8018C918F
:1004D000F101E80FF11D648B8F5F8C93803409F07C
:1004E0002FC1F10174962081818190E0B0E0A0E0FD
:1004F000DC0199278827B22B2381822B2281922B22
:1005000081939193A193B19309811A810E171F07CB
:1005100051F7D1012D913D914D915C9113972F870A
:10052000388B498B5A8B14960D911D912D913C91CE
:1005300017970B8B1C8B2D8B3E8B18960D911D9155
:100540002D913C911B970F8B188F298F3A8F1C96FA
:100550000D911D912D913C911F970B8F1C8F2D8F0D
:100560003E8F50960D911D912D913C9153970F8F79
:1005700018A329A33AA30B891C892D893E898B8C4A
:100580009C8CAD8CBE8C4F88588C698C7A8CCF8CAF
:10059000D8A0E9A0FAA08F859889A989BA898B8308
:1005A0009C83AD83BE831A82198289819A8164E11A
:1005B00070E00E94040BFB01EE0FFF1FEE0FFF1F08
:1005C000E859FF4F85919591A591B4918F839887B4
:1005D000A987BA87E981FA81EF70FF273596EE0F78
:1005E000FF1FEE0FFF1FE20DF31D8B819C81AD817C
:1005F000BE814BE1B695A795979587954A95D1F71A
:100600004B815C816D817E81689414F8440F551F85
:10061000661F771F1694D1F7842B952BA62BB72B2B
:100620004F81588569857A85480F591F6A1F7B1F3E
:1006300080819181A281B381840F951FA61FB71F6E
:100640008C0D9D1DAE1DBF1D49815A814431510540
:100650000CF009C1B501A40144255525662577256F
:100660004023512362237323482559256A257B257E
:10067000840F951FA61FB71F6801790142E0F69409
:10068000E794D794C7944A95D1F7B901A801EEE150
:10069000440F551F661F771FEA95D1F74C295D2936
:1006A0006E297F2909811A810F5F1F4F1A830983E1
:1006B0000035110509F05DC00F85188929893A892F
:1006C000800F911FA21FB31FF10180839183A2832A
:1006D000B3838B899C89AD89BE890B811C812D8157
:1006E0003E81800F911FA21FB31F84839583A68331
:1006F000B7830F89188D298D3A8D400F511F621FC6
:10070000731F40875187628773878B8D9C8DAD8D5A
:10071000BE8D840D951DA61DB71D84879587A68760
:10072000B7870F8D18A129A13AA1800E911EA21E94
:10073000B31E808A918AA28AB38AEC5AFF4F108234
:10074000A8960FB6F894DEBF0FBECDBFDF91CF9154
:100750001F910F91FF90EF90DF90CF90BF90AF90DF
:100760009F908F907F906F905F904F903F902F90D1
:10077000089529813A812F703327220F331F220FCA
:10078000331FF101E20FF31FF887EF830489158906
:10079000268937890BA31CA32DA33EA309811A81A7
:1007A000003111050CF450C09801235031092F700D
:1007B00033272B5F3F4F220F331F220F331F220D92
:1007C000331DF8013897EF70FF273596EE0FFF1FA6
:1007D000EE0FFF1F8F01020D131D18A70FA3F901C4
:1007E000C080D180E280F380F801008111812281F4
:1007F0003381C026D126E226F3260BA11CA12DA110
:100800003EA10C251D252E253F25E981FA813E9725
:10081000EF70FF273596EE0FFF1FEE0FFF1FE20D63
:10082000F31DC080D180E280F3800C251D252E258C
:100830003F25000F111F221F331F011DEF81F88577
:10084000048B158B268B378B0B811C812D813E8170
:1008500075016401530142012A013B018B839C8392
:10086000AD83BE83A2CE49815A81B501483251057C
:10087000CCF049815A814C335105A4F4A401442998
:100880005529662977294023512362237323750153
:100890006401C420D520E620F7204C295D296E296B
:1008A0007F29E6CEA40144255525662577254027D6
:1008B000512762277327DCCE0F931F93CF93DF93CB
:1008C0008C010C5F1F4FC62FD0E0FC01EF59FF4F8A
:1008D0002081211125C038972081318142815381A7
:1008E0006481758186819781A1E00E94550B2083E8
:1008F00031834283538364837583868397836C2F0C
:10090000C8010E9446029E0181E090E0C217D30711
:1009100011F090E080E0DF91CF911F910F91089549
:100920002FEF3FEFF1CF42E050E064E271E08FE85B
:1009300091E00C949100CF93DF93EC018881998131
:10094000009711F00E94170C198218821D821C82D8
:100950001B821A82DF91CF910895FC0180819181E1
:10096000009711F00C94170C08950F931F93CF93D9
:10097000DF93EC0188819981009759F02A813B81AE
:100980002617370730F081E0DF91CF911F910F914B
:1009900008958B016F5F7F4F0E94A00C009759F064
:1009A000998388831B830A832C813D81232B59F7EC
:1009B000FC011082E8CF80E0E7CFEF92FF920F9327
:1009C0001F93CF93DF936115710541F480E0DF91B0
:1009D000CF911F910F91FF90EF9008954115510510
:1009E000B1F07B01EC010C811D81040F151FB801D2
:1009F0000E94B504882351F3288139818C819D811F
:100A0000B701820F931F0E946F0D1D830C8381E03D
:100A1000DECFEF92FF920F931F93CF93DF93EC0102
:100A20007B018A01BA010E94B50481110BC0CE017D
:100A30000E949B04CE01DF91CF911F910F91FF90F7
:100A4000EF9008951D830C83B701888199810E94DE
:100A50006F0DF0CFEF92FF920F931F93CF93DF9321
:100A6000CDB7DEB761970FB6F894DEBF0FBECDBF2E
:100A70008C01CB01F801118210821382128215823F
:100A800014824AE09E012F5F3F4F7901B9010E9415
:100A9000890AF70101900020E9F73197AF014E195B
:100AA0005F09B701C8010E94090561960FB6F89465
:100AB000DEBF0FBECDBFDF91CF911F910F91FF9091
:100AC000EF900895FB0101900020E9F73197AF0105
:100AD000461B570B0C9409050F931F93CF93DF937D
:100AE00000D0CDB7DEB78C01FC01118210821382D9
:100AF00012821582148266E271E00E9462050E94F1
:100B0000E10097FD0EC08A30910559F089831A8261
:100B100041E050E0BE016F5F7F4FC8010E94DD04DD
:100B2000EECFC8010F900F90DF91CF911F910F91E1
:100B30000895FB01DC0111961C921E9213961C92E3
:100B40001E92129715961C921E921497861797075D
:100B500049F0608171816115710521F044815581F1
:100B60000C94090508951F920F920FB60F9211244D
:100B70002F933F934F935F936F937F938F939F93A5
:100B8000AF93BF93EF93FF938FE891E00E948F01A3
:100B9000FF91EF91BF91AF919F918F917F916F9155
:100BA0005F914F913F912F910F900FBE0F901F902B
:100BB00018951F920F920FB60F9211242F938F93B7
:100BC0009F93EF93FF93E0919F01F091A0018081AB
:100BD000E091A501F091A60182FD1BC0908180915A
:100BE000A8018F5F8F732091A901821741F0E091D6
:100BF000A801F0E0E157FE4F958F8093A801FF9187
:100C0000EF919F918F912F910F900FBE0F901F909A
:100C100018958081F4CF1F920F920FB60F92112476
:100C20002F933F938F939F93AF93BF9380918B01AB
:100C300090918C01A0918D01B0918E01309146016F
:100C400023E0230F2D3758F50196A11DB11D2093E8
:100C5000460180938B0190938C01A0938D01B093FA
:100C60008E018091470190914801A0914901B09176
:100C70004A010196A11DB11D80934701909348013F
:100C8000A0934901B0934A01BF91AF919F918F9179
:100C90003F912F910F900FBE0F901F90189526E84F
:100CA000230F0296A11DB11DD2CFEFE8F1E0138210
:100CB000128288EE93E0A0E0B0E084839583A6835F
:100CC000B7838AE091E09183808385EC90E09587FB
:100CD000848784EC90E09787868780EC90E0918B06
:100CE000808B81EC90E0938B828B82EC90E0958BF3
:100CF000848B86EC90E0978B868B118E128E138EF0
:100D0000148EECE2F2E0138212828CE191E0918386
:100D10008083E2EEF2E01182108213821282158249
:100D2000148266E271E0CF010C946205CF93DF93E9
:100D3000CDB7DEB7EF970FB6F894DEBF0FBECDBFCD
:100D4000789484B5826084BD84B5816084BD85B5A6
:100D5000826085BD85B5816085BD80916E008160B2
:100D600080936E0010928100809181008260809358
:100D7000810080918100816080938100809180005A
:100D80008160809380008091B10084608093B10085
:100D90008091B00081608093B00080917A0084607F
:100DA00080937A0080917A00826080937A008091AB
:100DB0007A00816080937A0080917A0080688093C5
:100DC0007A001092C100EDEAF0E02491E9E9F0E048
:100DD0008491882399F090E0880F991FFC01EE57C9
:100DE000FF4FA591B491FC01E858FF4F8591949174
:100DF0008FB7F894EC91E22BEC938FBFE0919F01B9
:100E0000F091A00182E08083E0919B01F0919C0130
:100E10001082E0919D01F0919E0180E1808310920B
:100E2000A701E091A301F091A40186E08083E09105
:100E3000A101F091A201808180618083E091A101F4
:100E4000F091A201808188608083E091A101F091FE
:100E5000A201808180688083E091A101F091A201CC
:100E600080818F7D808345E050E067E271E08FE80C
:100E700091E00E9491000E9493048FE891E00E940B
:100E8000FE019E012F5F3F4F7901F0E58F2EF2E0CA
:100E90009F2ECE01CA960E946C058EAD9FAD892B08
:100EA00009F4F7C26DE271E08AAD9BAD0E94660D58
:100EB000892B09F0EEC28FE891E00E94FE01CE017D
:100EC000C4960E946C05CE018E960E946C050E940D
:100ED0002F01FC0197FDC4C08D32910541F0C097F0
:100EE0000A9728F08FE891E00E94CD00F0CF412CC6
:100EF000512C320110E0E130F105D9F0ED32F1056D
:100F000009F4ACC0CF01C0970A9798F4AAE0B0E00A
:100F1000A30192010E94B30A2F01FF0F6608770810
:100F2000460E571E681E791E30E3431A51086108A9
:100F300071088FE891E00E94CD000E942F01FC0112
:100F4000C0970A97C0F2E130F105A9F2112341F0F0
:100F50007094609450944094411C511C611C711C0D
:100F600084E6849D5001859DB00C11248FEFA81A52
:100F7000B80A0E941E021B012C01D12CC12C11E0C9
:100F8000E8E26E2E712CCA14DB0408F07AC284EBFE
:100F900090E0A0E3B2E0FC01459155916591749118
:100FA0004D935D936D937D930496E4E4F2E0EA172C
:100FB000FB0789F710928402109285021092860234
:100FC00010928702109288021092890210928A026F
:100FD00010928B0210928C0210928D02B601C70102
:100FE0000E942A05BE016C5C7F4FCE0188960E944C
:100FF0009905BE01685D7F4FCE0182960E949905DA
:101000004D815E8169817A81CE0182960E94DD04E4
:10101000811104C0CE0182960E949B044EA15FA163
:101020006AA17BA18CE292E00E949100CE0182969F
:101030000E94AD04CE0188960E94AD04C7010E94B3
:10104000AD0410938D0260E880E392E00E944602B6
:1010500080918402883341F060E0F6CF11E069CFDF
:10106000412C512C32017CCF209185023091860297
:1010700040918702509188026091890270918A02A2
:1010800080918B0290918C0203E00E941F0B08E379
:101090000E943A0B622F80E392E00E944602209168
:1010A00085023091860240918702509188026091BA
:1010B000890270918A0280918B0290918C0203E0E8
:1010C0000E941F0B00E30E943A0B622F80E392E024
:1010D0000E9446022091850230918602409187024B
:1010E000509188026091890270918A0280918B02EE
:1010F00090918C0203E00E941F0B08E20E943A0BC1
:10110000622F80E392E00E94460220918502309196
:101110008602409187025091880260918902709105
:101120008A0280918B0290918C0203E00E941F0B37
:1011300000E20E943A0B622F80E392E00E94460296
:101140002091850230918602409187025091880259
:101150006091890270918A0280918B0290918C0239
:1011600003E00E941F0B08E10E943A0B622F80E30C
:1011700092E00E94460220918502309186024091C1
:101180008702509188026091890270918A02809151
:101190008B0290918C0203E00E941F0B00E10E94E1
:1011A0003A0B622F80E392E00E9446022091850272
:1011B00030918602409187025091880260918902A5
:1011C00070918A0280918B0290918C0203E00E94C0
:1011D0001F0B08E00E943A0B622F80E392E00E940E
:1011E000460260918502660F660F660F80E392E00B
:1011F0000E944602ECE2F2E064817581868197816B
:101200000E94180B648375838683978334962CE43D
:1012100032E02E173F0781F78AE090E0ABE4B1E0BF
:1012200020E332E0F90161919F01462F50E074E024
:10123000559547957A95E1F74B5C5E4FFA014081F1
:101240004C93E62FEF70F0E0EB5CFE4F408111967F
:101250004C93119712968216930621F70197F1F697
:101260001A8219821C821B821E821D826BE471E02D
:10127000C7010E9462058091E2029091E30200970B
:1012800009F452C069817A816115710509F44AC077
:101290004091E4025091E5022D813E8142175307AF
:1012A00008F440C00E946F0D8D819E819093E702EB
:1012B0008093E6021E821D82C7010E94AD048091C8
:1012C000E6029091E702899748F0E091E202F091FE
:1012D000E3027092E7026092E60210A6BE01625D30
:1012E0007F4FC7010E94990562EE72E0CE0182969F
:1012F0000E9499052EA13FA18D819E812817390753
:10130000D1F58AA19BA169817A81009721F16115AC
:10131000710509F0CFC0232B09F4CFC0FC018081F7
:1013200090E026C00E94170C89819A819093E30275
:101330008093E2028B819C819093E5028093E4028A
:101340008D819E819093E7028093E6021A82198232
:101350001C821B82AFCF6115710509F4AEC0232B2F
:1013600009F4ABC0FB01808190E0919581959109D2
:1013700001E0892B09F000E0CE0182960E94AD04C5
:10138000C7010E94AD04002309F499C00E941E0207
:101390001BA21AA21DA21CA21FA21EA262197309DF
:1013A000840995092AE0A7010E94670AF7010190C4
:1013B0000020E9F73197AF014E195F09B701CE015F
:1013C00082960E940905B601CE0188960E942A05E0
:1013D000BE01685D7F4FC7010E94990541E050E062
:1013E00063E371E0C7010E94DD04811103C0C701FE
:1013F0000E949B044EA15FA16AA17BA1C7010E942C
:10140000DD04811103C0C7010E949B044D815E81F0
:1014100069817A818FE891E00E9491000E94930493
:10142000C7010E94AD04CE0188960E94AD04CE0192
:1014300082960E94AD042D9A0E941E025B016C01EF
:1014400082E3482E512C612C712C0E941E026A19D5
:101450007B098C099D09683E734081059105A8F3BD
:10146000F1E04F1A51086108710828EEA20E23E03E
:10147000B21EC11CD11C411451046104710429F72E
:101480002D98CE018E960E94AD04CE01C4960E9486
:10149000AD04CE01CA960E94AD0480E090E0892B95
:1014A00009F4F7CC0E947B01882309F4EECC0E945A
:1014B0000000EBCC0E94660D5BCF01E05DCF8FEFAB
:1014C000C81AD80A60CD82EE92E00C94AD04BB2716
:1014D000FA01A62F6217710581059105330B30FBC8
:1014E00066F0AA27660F771F881F991FAA1FA217E9
:1014F00010F0A21B63953850A9F7A05DAA3308F03D
:10150000A95DA19336F7B111B1931082CA010C9471
:10151000A30ABB27FB015527AA27880F991FAA1FDB
:10152000A41710F0A41B83955051B9F7A05DAA33FE
:1015300008F0A95DA193009779F7B111B1931192C9
:10154000CB010C94A30ADC01FC01672F7191772376
:10155000E1F7329704C07C916D9370836291AE176E
:10156000BF07C8F308950E94F50AA59F900DB49F88
:10157000900DA49F800D911D112408952F923F92EC
:101580004F925F926F927F928F929F92AF92BF9293
:10159000CF92DF92EF92FF920F931F93CF93DF933F
:1015A000CDB7DEB7CA1BDB0B0FB6F894DEBF0FBE9C
:1015B000CDBF09942A88398848885F846E847D84E9
:1015C0008C849B84AA84B984C884DF80EE80FD80EB
:1015D0000C811B81AA81B981CE0FD11D0FB6F89461
:1015E000DEBF0FBECDBFED010895A29FB001B39F36
:1015F000C001A39F700D811D1124911DB29F700D1C
:10160000811D1124911D089597FB072E16F4009457
:1016100007D077FD09D00E94610B07FC05D03EF48E
:10162000909581959F4F0895709561957F4F08958E
:101630006927962769277827872778270895002E16
:10164000083090F0982F872F762F652F542F432F37
:10165000322F22270850F4CF220F331F441F551F6B
:10166000661F771F881F991F0A95B2F7002D0895EE
:1016700097FD1094002E083098F00850232F342F37
:10168000452F562F672F782F892F912DF4CF159442
:1016900097958795779567955795479537952795AA
:1016A0000A95AAF71124002D08950024A7FD00949F
:1016B0002A0F301D401D501D601D701D801D901D86
:1016C0000895AA1BBB1B51E107C0AA1FBB1FA61789
:1016D000B70710F0A61BB70B881F991F5A95A9F7DB
:1016E00080959095BC01CD010895EE0FFF1F0590E8
:1016F000F491E02D09940F931F93CF93DF938230E1
:10170000910510F482E090E0E091EA02F091EB02A2
:1017100030E020E0B0E0A0E0309799F421153105E9
:1017200009F44AC0281B390B24303105D8F58A81C9
:101730009B816115710589F1FB0193838283FE0111
:1017400011C0408151810281138148175907E0F08F
:101750004817590799F4109761F012960C93129755
:1017600013961C933296CF01DF91CF911F910F9169
:1017700008950093EA021093EB02F4CF211531058E
:1017800051F04217530738F0A901DB019A01BD015E
:10179000DF01F801C1CFEF01F9CF9093EB02809305
:1017A000EA02CDCFFE01E20FF31F81939193225005
:1017B000310939832883D7CF2091E8023091E9029B
:1017C000232B41F420910201309103013093E9026F
:1017D0002093E8022091000130910101211531058B
:1017E00041F42DB73EB74091040150910501241BEF
:1017F000350BE091E802F091E902E217F307A0F45B
:101800002E1B3F0B2817390778F0AC014E5F5F4F56
:101810002417350748F04E0F5F1F5093E90240939D
:10182000E802819391939FCFF0E0E0E09CCFCF93CB
:10183000DF930097E9F0FC01329713821282A091A6
:10184000EA02B091EB02ED0130E020E01097A1F444
:1018500020813181820F931F2091E8023091E902AB
:101860002817390709F061C0F093E902E093E80214
:10187000DF91CF910895EA01CE17DF07E8F54A819D
:101880005B819E0141155105B1F7E901FB83EA83B4
:1018900049915991C40FD51FEC17FD0761F4808160
:1018A00091810296840F951FE90199838883828133
:1018B00093819B838A83F0E0E0E012968D919C9166
:1018C00013970097B9F52D913C911197CD01029690
:1018D000820F931F2091E8023091E90228173907FF
:1018E00039F6309751F51092EB021092EA02B0935C
:1018F000E902A093E802BCCFD383C2834081518127
:10190000840F951FC817D90761F44E5F5F4F888118
:101910009981480F591F518340838A819B8193830A
:1019200082832115310509F0B0CFF093EB02E093EB
:10193000EA029ECFFD01DC01C0CF13821282D7CF15
:10194000B0E0A0E0E6EAFCE00C94C00A8C0100974D
:1019500051F4CB010E947B0B8C01C801CDB7DEB7DF
:10196000E0E10C94DC0AFC01E60FF71F9C01225019
:101970003109E217F30708F49DC0D901CD91DC913C
:101980001197C617D70798F0C530D10530F3CE01AF
:1019900004978617970708F3C61BD70B2297C193A6
:1019A000D1936D937C93CF010E94170CD6CF5B012E
:1019B000AC1ABD0A4C018C0E9D1EA091EA02B0919A
:1019C000EB02512C412CF12CE12C109731F5809138
:1019D000E8029091E9028815990509F05CC0461665
:1019E000570608F058C080910001909101010097BE
:1019F00041F48DB79EB74091040150910501841BBD
:101A0000950BE817F90708F055C0F093E902E09349
:101A1000E802F90171836083A0CF8D919C911197A9
:101A200012966C90129713967C901397A815B9058F
:101A300059F56C0142E0C40ED11CCA14DB0420F13C
:101A4000AC014A195B09DA011296159780F062829F
:101A5000738251834083D9016D937C93E114F10427
:101A600071F0D7011396FC93EE93129776CF2296DE
:101A70008C0F9D1FF90191838083F301EFCFF093C9
:101A8000EB02E093EA0269CF4816590608F42C01EC
:101A90007D01D3019ACFCB010E947B0B7C01009783
:101AA00049F0AE01B8010E945D0DC8010E94170CFB
:101AB000870153CF10E000E050CFFB01DC0102C0F2
:101AC00001900D9241505040D8F70895FB01DC0180
:101AD0008D91019080190110D9F3990B0895FB01A4
:101AE000DC0101900D920020E1F7089510E0C5E6B9
:101AF000D0E004C0FE010E94750B2196C636D107C6
:061B0000C9F7F894FFCFC5
:101B06000000EC02800000000000B1019100BE0060
:101B1600FE016F01CD002101000000005C04910070
:101B2600430290000D0A0072656164790073746166
:101B36007274002C0030313233343536373839611F
:061B4600626364656600A5
:00000001FF
